S017000066696E616C2D70726F6A2D333238702E73726563E1
S11300000C9434000C9451000C9451000C94510045
S11300100C9451000C9451000C9451000C94510018
S11300200C9451000C9451000C9451000C94510008
S11300300C9451000C9451000C9451000C945100F8
S11300400C9451000C9451000C9451000C945100E8
S11300500C9451000C9451000C9451000C945100D8
S11300600C9451000C94510011241FBECFEFD8E022
S1130070DEBFCDBF11E0A0E0B1E0E6E5F4E102C0EF
S113008005900D92A432B107D9F721E0A4E2B1E0C2
S113009001C01D92A838B207E1F70E9448010C94F0
S11300A0290A0C940000CF92DF92EF92FF920F93F3
S11300B01F93CF93DF93CDB7DEB7A8970FB6F8940D
S11300C0DEBF0FBECDBF6C017B018A01BC01CE0136
S11300D001960E9422070E0D1F1DE1E0F0E0EC0FD7
S11300E0FD1FE00FF11F1082C6018E0D9F1D0E949F
S11300F00407A8960FB6F894DEBF0FBECDBFDF91FC
S1130100CF911F910F91FF90EF90DF90CF900895C2
S1130110CF93DF93EC0145E050E064E071E00E948E
S11301202907892BB9F443E050E066E070E0CE0182
S11301300E945300909303018093020143E050E036
S11301406AE070E0CE010E94530090930101809315
S113015000019BC044E050E06AE071E0CE010E94DF
S11301602907892B09F040C08D81863459F46091A8
S113017000017091010180910201909103010E949C
S1130180880483C0823459F46091000170910101A4
S113019080910201909103010E94930476C08235FC
S11301A039F480910001909101010E947D046DC099
S11301B08C3439F480910201909103010E947204FD
S11301C064C0853559F460910001709101018091FA
S11301D00201909103010E949E0457C0833509F0E7
S11301E054C00E94A90451C045E050E06FE071E0A2
S11301F0CE010E942907892BC9F40E9466049F93AB
S11302008F9385E191E09F938F9384E291E09F9394
S11302108F930E943F0784E291E00E94CD040F90E7
S11302200F900F900F900F900F902FC045E050E06B
S113023069E171E0CE010E942907892BC9F40E946B
S11302406C049F938F9385E191E09F938F9384E255
S113025091E09F938F930E943F0784E291E00E9474
S1130260CD040F900F900F900F900F900F900DC032
S113027044E050E06FE171E0CE010E942907892B30
S113028021F48FE191E00E94CD04DF91CF91089594
S113029087E690E00E94B7040E94AE040E945901D0
S11302A084E291E00E94DA0484E291E00E948800F2
S11302B0F7CFE4E6F0E080818E7F8083ECE7F0E026
S11302C080818064808380818F778083EAE7F0E097
S11302D0808181608083808182608083808184606A
S11302E080838081806880830895ECE7F0E08081DA
S11302F08E7F808380818260808380818B7F8083F6
S11303008081877F8083EEE7F0E080818160808355
S1130310EAE7F0E080818064808380917A0086FD42
S1130320FCCF80917800909179000895ECE7F0E09B
S113033080818160808380818260808380818B7FE3
S113034080838081877F8083EEE7F0E08081816015
S11303508083EAE7F0E080818064808380917A0082
S113036086FDFCCF809178009091790008950E94D9
S11303707501813022E0920708F020C1893921E01B
S1130380920700F1BC0180E090E00E9409069B0105
S1130390AC0160E070E080E094E40E94F40420E0AA
S11303A030E04EEC52E40E94610520E030E048E485
S11303B052E40E94970620E030E048EC52E40E94A8
S11303C0F5040895813721E0920700F1BC0180E033
S11303D090E00E9409069B01AC0160E070E88CEC9F
S11303E093E40E94F40420E030E040E252E40E94EE
S11303F0610520E030E048E452E40E94970620E0E2
S113040030E046E153E40E94F5040895823521E08A
S1130410920700F1BC0180E090E00E9409069B0174
S1130420AC0160E070E888EB93E40E94F40420E0FF
S113043030E048EF51E40E94610520E030E048E4F8
S113044052E40E94970620E030E048E453E40E941E
S1130450F50408958D3321E0920700F1BC0180E09A
S113046090E00E9409069B01AC0160E070E089EA1B
S113047093E40E94F40420E030E048EA51E40E944E
S1130480610520E030E048E452E40E94970620E051
S113049030E04AE753E40E94F5040895833321E0F1
S11304A0920700F1BC0180E090E00E9409069B01E4
S11304B0AC0160E070E88EE993E40E94F40420E06B
S11304C030E040E251E40E94610520E030E048E47D
S11304D052E40E94970620E030E046E953E40E948B
S11304E0F5040895893221E0920700F1BC0180E00F
S11304F090E00E9409069B01AC0160E070E889E984
S113050093E40E94F40420E030E040E251E40E94CD
S1130510610520E030E048E452E40E94970620E0C0
S113052030E04FEA53E40E94F50408958F3121E04E
S1130530920700F1BC0180E090E00E9409069B0153
S1130540AC0160E070E884E993E40E94F40420E0E4
S113055030E040E251E40E94610520E030E048E4EC
S113056052E40E94970620E030E048EC53E40E94F5
S1130570F5040895853121E0920728F1BC0180E05B
S113058090E00E9409069B01AC0160E070E88FE8EE
S113059093E40E94F40420E030E040E251E40E943D
S11305A0610520E030E048E452E40E94970620E030
S11305B030E041EE53E40E94F504089560E070E0F9
S11305C086EC92E4089560E070E08AEF93E4089585
S11305D00E9496018E3C21E0920708F0F6C08A3012
S11305E021E0920700F1BC0180E090E00E9409063E
S11305F09B01AC0160E070E886EE93E40E94F40491
S113060020E030E043E453E40E94610520E030E060
S113061040E251E40E94970620E030E040E251E4D9
S11306200E94F5040895883B910500F1BC0180E027
S113063090E00E9409069B01AC0160E070E085E84F
S113064093E40E94F40420E030E044EA52E40E947F
S1130650610520E030E040E251E40E94970620E08A
S113066030E040EA51E40E94F50408958A39910586
S113067000F1BC0180E090E00E9409069B01AC01FE
S113068060E070E088E393E40E94F40420E030E04A
S113069040EF51E40E94610520E030E040E251E483
S11306A00E94970620E030E040EF51E40E94F504F8
S11306B008958B37910500F1BC0180E090E00E9421
S11306C009069B01AC0160E070E08AE193E40E94BA
S11306D0F40420E030E048EF51E40E94610520E09A
S11306E030E040E251E40E94970620E030E040E22E
S11306F052E40E94F50408958636910500F1BC0188
S113070080E090E00E9409069B01AC0160E070E08B
S113071086EF92E40E94F40420E030E048EA51E4D9
S11307200E94610520E030E040E251E40E94970617
S113073020E030E048E452E40E94F50408958C354A
S1130740910500F1BC0180E090E00E9409069B0144
S1130750AC0160E070E08CEC92E40E94F40420E0D0
S113076030E040E251E40E94610520E030E040E2E4
S113077051E40E94970620E030E040E752E40E94F2
S1130780F50408958235910528F1BC0180E090E0DC
S11307900E9409069B01AC0160E070E088EB92E4E2
S11307A00E94F40420E030E040E251E40E9461053C
S11307B020E030E040E251E40E94970620E030E07F
S11307C04CE852E40E94F504089560E070E080EA89
S11307D090E4089560E070E080EA92E40895E1EB2B
S11307E0F0E0808181608083E0EBF0E080818160D3
S11307F08083808180688083808180628083089583
S11308008AB188608AB984B1806184B984B1826014
S113081084B9089584B1886084B984B1806284B94C
S113082084B1816084B908951816190614F01092E1
S1130830B4009C01215031092E3F310510F48093FE
S1130840B4008F3F910514F08093B400089525B14E
S11308502D7F25B90E94140485B18F7E85B9089532
S113086025B12D7F25B90E94140485B1806185B915
S113087008951816190614F01092B3009C01215023
S113088031092E3F310510F48093B3008F3F910559
S113089014F08093B300089525B12E7F25B90E94EA
S11308A0390485B1806285B9089525B12E7F25B9B3
S11308B00E94390485B18F7D85B9089585B1826020
S11308C085B9089585B1816085B908950E94E802CB
S11308D00E94D305CB0108950E94B7010E94D3055D
S11308E0CB010895CF93DF93EC010E945E04CE0107
S11308F00E944C04DF91CF910895CF93DF93EC01D4
S11309000E946204CE010E942704DF91CF910895D2
S1130910CF93DF93EB010E943004CE010E94550473
S1130920DF91CF910895CF93DF93EB010E943004C0
S1130930CE010E945504DF91CF910895CF93DF93A8
S1130940EB010E942704CE010E945504DF91CF9150
S113095008950E945E040E94620408950E94EF03B9
S11309600E9400040E940A040E94A904089590931E
S1130970C5008093C40088E18093C100E2ECF0E0FC
S113098086E0808380818860808308959091C00090
S113099095FFFCCF8093C6000895CF93DF93EC01BD
S11309A003C00E94C604219688818111FACFDF9189
S11309B0CF910895AC0190E020E030E00CC090911C
S11309C0C0009923E4F79091C600FA01E20FF31FE7
S11309D090832F5F3F4F9D3011F09A3081F7FA01D9
S11309E0E20FF31F108208955058BB27AA270E94D4
S11309F00C050C945D060E944F0638F00E945606C2
S1130A0020F039F49F3F19F426F40C944C060EF4AC
S1130A10E095E7FB0C944606E92F0E946E0658F316
S1130A20BA17620773078407950720F079F4A6F5CF
S1130A300C9490060EF4E0950B2EBA2FA02D0B010A
S1130A40B90190010C01CA01A0011124FF27591B0F
S1130A5099F0593F50F4503E68F11A16F040A22F15
S1130A60232F342F4427585FF3CF46953795279586
S1130A70A795F0405395C9F77EF41F16BA0B620B85
S1130A80730B840BBAF09150A1F0FF0FBB1F661FCC
S1130A90771F881FC2F70EC0BA0F621F731F841F0F
S1130AA048F4879577956795B795F7959E3F08F035
S1130AB0B0CF9395880F08F09927EE0F97958795F7
S1130AC008950E9475050C945D060E94560658F020
S1130AD00E944F0640F029F45F3F29F00C9446062B
S1130AE051110C9491060C944C060E946E0668F306
S1130AF09923B1F3552391F3951B550BBB27AA27D3
S1130B0062177307840738F09F5F5F4F220F331F0C
S1130B10441FAA1FA9F335D00E2E3AF0E0E832D0D4
S1130B2091505040E695001CCAF72BD0FE2F29D0D7
S1130B30660F771F881FBB1F261737074807AB07A9
S1130B40B0E809F0BB0B802DBF01FF2793585F4F1E
S1130B503AF09E3F510578F00C9446060C949106A9
S1130B605F3FE4F3983ED4F3869577956795B79500
S1130B70F7959F5FC9F7880F911D9695879597F90B
S1130B800895E1E0660F771F881FBB1F6217730784
S1130B908407BA0720F0621B730B840BBA0BEE1F99
S1130BA088F7E09508950E94DA056894B1110C94D1
S1130BB0910608950E94760688F09F5798F0B92F01
S1130BC09927B751B0F0E1F0660F771F881F991F7E
S1130BD01AF0BA95C9F714C0B13091F00E9490068A
S1130BE0B1E008950C949006672F782F8827B85F9A
S1130BF039F0B93FCCF3869577956795B395D9F7D6
S1130C003EF490958095709561957F4F8F4F9F4FDF
S1130C100895E89409C097FB3EF4909580957095EB
S1130C2061957F4F8F4F9F4F9923A9F0F92F96E934
S1130C30BB279395F695879577956795B795F111A9
S1130C40F8CFFAF4BB0F11F460FF1BC06F5F7F4F46
S1130C508F4F9F4F16C0882311F096E911C0772358
S1130C6021F09EE8872F762F05C0662371F096E861
S1130C70862F70E060E02AF09A95660F771F881F30
S1130C80DAF7880F9695879597F9089597F99F67EE
S1130C9080E870E060E008959FEF80EC0895002400
S1130CA00A941616170618060906089500240A94CD
S1130CB012161306140605060895092E0394000C53
S1130CC011F4882352F0BB0F40F4BF2B11F460FFE2
S1130CD004C06F5F7F4F8F4F9F4F089557FD90580B
S1130CE0440F551F59F05F3F71F04795880F97FBEC
S1130CF0991F61F09F3F79F08795089512161306A6
S1130D001406551FF2CF4695F1DF08C016161706D4
S1130D101806991FF1CF8695710561050894089509
S1130D20E894BB2766277727CB0197F908950E949B
S1130D30AA060C945D060E944F0638F00E945606DF
S1130D4020F0952311F00C9446060C944C061124C3
S1130D500C9491060E946E0670F3959FC1F3950F53
S1130D6050E0551F629FF001729FBB27F00DB11D2B
S1130D70639FAA27F00DB11DAA1F649F6627B00DBB
S1130D80A11D661F829F2227B00DA11D621F739FA4
S1130D90B00DA11D621F839FA00D611D221F749FB2
S1130DA03327A00D611D231F849F600D211D822FF9
S1130DB0762F6A2F11249F5750409AF0F1F0882320
S1130DC04AF0EE0FFF1FBB1F661F771F881F91504D
S1130DD05040A9F79E3F510580F00C9446060C94B0
S1130DE091065F3FE4F3983ED4F386957795679533
S1130DF0B795F795E7959F5FC1F7FE2B880F911D77
S1130E009695879597F90895FC0188279927E89482
S1130E1021912032E9F3293010F02E30C8F32B321F
S1130E2041F02D3239F4689404C00E943707820FD0
S1130E30911D219120532A30C0F31EF49095819581
S1130E409F4F0895FB01DC0101900D920020E1F712
S1130E500895FB01DC014150504030F08D91019028
S1130E60801919F40020B9F7881B990B08957AE0CA
S1130E70979F902D879F802D910D11240895AEE0AA
S1130E80B0E0E5E4F7E00C94000A0D891E8986E0E1
S1130E908C831A8309838FEF9FE79E838D83AE0132
S1130EA0475E5F4F6F89788DCE0101960E9461077E
S1130EB0EF81F885E00FF11F10822E96E4E00C9488
S1130EC01C0AABE0B0E0E7E6F7E00C94F2096C0131
S1130ED07B018A01FC0117821682838181FFCCC1C8
S1130EE0CE0101963C01F6019381F70193FD8591B2
S1130EF093FF81917F01882309F4BAC1853239F4C3
S1130F0093FD859193FF81917F01853229F4B60188
S1130F1090E00E945809E7CF912C212C312CFFE15D
S1130F20F315D8F08B3279F038F4803279F08332CB
S1130F30A1F4232D20611DC08D3261F0803369F44A
S1130F40232D216016C0832D8260382EE32DE460AA
S1130F503E2E2AC0F32DF8601DC037FC2DC020EDB5
S1130F60280F2A3040F08E32B9F436FC81C1232D8B
S1130F702064322E19C036FE06C08AE0989E200DE9
S1130F801124922E11C0EAE02E9E200D1124222E4F
S1130F90F32DF0623F2E08C08C3621F4832D806837
S1130FA0382E02C0883641F4F70193FD859193FFF2
S1130FB081917F018111B3CF982F9F7D95549330F8
S1130FC028F40C5F1F4F9FE399830DC0833631F0E3
S1130FD0833771F0833509F059C021C0F80180814D
S1130FE089830E5F1F4F88248394912C530113C06F
S1130FF02801F2E04F0E511CF801A080B18036FEAA
S113100003C0692D70E002C06FEF7FEFC5010E943D
S11310104D094C018201F32DFF773F2E16C02801A4
S113102022E0420E511CF801A080B18036FE03C0BC
S1131030692D70E002C06FEF7FEFC5010E94420985
S11310404C01F32DF0683F2E820133FC1BC0822D2E
S113105090E088169906B0F4B60180E290E00E9410
S113106058092A94F4CFF50137FC859137FE819114
S11310705F01B60190E00E94580921102A9421E0F2
S1131080821A91088114910471F7E8C0843611F032
S1131090893641F5F80137FE07C06081718182818C
S11310A093810C5F1F4F08C060817181072E000C73
S11310B0880B990B0E5F1F4FF32DFF763F2E97FF82
S11310C009C090958095709561957F4F8F4F9F4F84
S11310D0F0683F2E2AE030E0A3010E949409882E94
S11310E0861845C0853731F4232D2F7EB22E2AE091
S11310F030E025C0932D997FB92E8F36C1F018F4B6
S1131100883579F0B5C0803719F0883721F0B0C040
S1131110E92FE061BE2EB4FE0DC0FB2DF460BF2E9E
S113112009C034FE0AC0292F2660B22E06C028E06A
S113113030E005C020E130E002C020E132E0F801F7
S1131140B7FE07C060817181828193810C5F1F4F5C
S113115006C06081718180E090E00E5F1F4FA301A3
S11311600E949409882E8618FB2DFF773F2E36FEA9
S11311700DC0232D2E7FA22E891458F434FE0BC0EB
S113118032FC09C0832D8E7EA82E05C0B82CA32C5A
S113119003C0B82C01C0B92CA4FE0FC0FE01E80D99
S11311A0F11D8081803321F49A2D997EA92E09C0E6
S11311B0A2FE06C0B394B39404C08A2D867809F0C5
S11311C0B394A3FC11C0A0FE06C0B21488F4280C8A
S11311D0922C9B180EC0B21460F4B60180E290E029
S11311E00E945809B394F7CFB21418F42B1802C014
S11311F0982C212CA4FE10C0B60180E390E00E943C
S11312005809A2FE17C0A1FC03C088E790E002C001
S113121088E590E0B6010CC08A2D867859F0A1FECD
S113122002C08BE201C080E2A7FC8DE2B60190E02F
S11312300E945809891438F4B60180E390E00E94B2
S113124058099A94F7CF8A94F301E80DF11D80812F
S1131250B60190E00E9458098110F5CF222009F4CC
S113126042CEB60180E290E00E9458092A94F6CF5B
S1131270F6018681978102C08FEF9FEF2B96E2E102
S11312800C940E0AFC010590615070400110D8F7CF
S1131290809590958E0F9F1F0895FC0161507040BA
S11312A001900110D8F7809590958E0F9F1F089597
S11312B00F931F93CF93DF93FB01238121FD03C081
S11312C08FEF9FEF2CC022FF16C0468157812481E7
S11312D035814217530744F4A081B1819D012F5FEA
S11312E03F4F318320838C93268137812F5F3F4F7B
S11312F03783268314C08B01EC01FB010084F18544
S1131300E02D0995892BE1F6D80116968D919C91D3
S11313101797019617969C938E931697CE01DF919B
S1131320CF911F910F910895FA01AA27283051F106
S1131330203181F1E8946F936E7F6E5F7F4F8F4F02
S11313409F4FAF4FB1E03ED0B4E03CD0670F781F61
S1131350891F9A1FA11D680F791F8A1F911DA11D46
S11313606A0F711D811D911DA11D20D009F468947F
S11313703F912AE0269F11243019305D3193DEF627
S1131380CF010895462F4770405D4193B3E00FD0DD
S1131390C9F7F6CF462F4F70405D4A3318F0495DC8
S11313A031FD4052419302D0A9F7EACFB4E0A695AB
S11313B09795879577956795BA95C9F700976105CD
S11313C0710508959B01AC010A2E06945795479523
S11313D037952795BA95C9F7620F731F841F951F18
S11313E0A01D08952F923F924F925F926F927F9229
S11313F08F929F92AF92BF92CF92DF92EF92FF9221
S11314000F931F93CF93DF93CDB7DEB7CA1BDB0BCC
S11314100FB6F894DEBF0FBECDBF09942A88398871
S113142048885F846E847D848C849B84AA84B98478
S1131430C884DF80EE80FD800C811B81AA81B98184
S1131440CE0FD11D0FB6F894DEBF0FBECDBFED0198
S10914500895F894FFCF9B
S1131456B400B4005350454544004D4F564500442E
S1131466495354430025640A0044495354460054DE
S10714764553540082
S9030000FC
