:100000000C9434000C9449000C9449000C94490061
:100010000C9449000C9449000C9449000C9449003C
:100020000C9449000C9449000C9449000C9449002C
:100030000C9449000C9449000C9449000C9449001C
:100040000C9449000C9449000C9449000C9449000C
:100050000C9449000C9449000C9449000C944900FC
:100060000C9449000C94490011241FBECFEFD8E036
:10007000DEBFCDBF11E0A0E0B1E0E6E7F1E002C0F5
:1000800005900D92A032B107D9F70E944E000C9452
:10009000B9000C940000F894789408950E944B00E5
:1000A0002FEF83ED90E3215080409040E1F700C0B6
:1000B00000000E945C00FFCFCF93DF93CDB7DEB787
:1000C000C456D1090FB6F894DEBF0FBECDBF87E688
:1000D00090E00E947C0080E091E00E9492008EE01F
:1000E00091E00E949200CE0101960E949F00CE01F5
:1000F00001960E949200F3CF9093C5008093C400B4
:1001000088E18093C100E2ECF0E086E080838081AA
:100110008860808308959091C00095FFFCCF809304
:10012000C6000895CF93DF93EC0103C00E948B00BB
:10013000219688818111FACFDF91CF910895AC018A
:1001400090E020E030E00CC09091C0009923E4F7EB
:100150009091C600FA01E20FF31F90832F5F3F4F8B
:100160009D3011F09A3081F7FA01E20FF31F1082EF
:060170000895F894FFCF92
:10017600496E697469616C697A6564210A00526521
:100186006164696E67206C696E652E2E2E0A00000A
:00000001FF
