S017000066696E616C2D70726F6A2D333238702E73726563E1
S11300000C9434000C9451000C9451000C94510045
S11300100C9451000C9451000C9451000C94510018
S11300200C9451000C9451000C9451000C94510008
S11300300C9451000C9451000C9451000C945100F8
S11300400C9451000C9451000C9451000C945100E8
S11300500C9451000C9451000C9451000C945100D8
S11300600C9451000C94510011241FBECFEFD8E022
S1130070DEBFCDBF11E0A0E0B1E0EEE1FEE002C0E2
S113008005900D92A431B107D9F721E0A4E1B1E0C4
S113009001C01D92A837B207E1F70E947A010C94BF
S11300A00D070C940000CF92DF92EF92FF920F9312
S11300B01F93CF93DF93CDB7DEB7A8970FB6F8940D
S11300C0DEBF0FBECDBF6C017B018A01BC01CE0136
S11300D001960E9406040E0D1F1DE1E0F0E0EC0FF6
S11300E0FD1FE00FF11F1082C6018E0D9F1D0E949F
S11300F0E803A8960FB6F894DEBF0FBECDBFDF911C
S1130100CF911F910F91FF90EF90DF90CF900895C2
S11301108F929F92AF92BF92CF92DF92EF92FF9213
S1130120CF93DF93EC0145E050E060E071E00E9482
S11301300D04892B09F05BC043E050E06AE070E0F5
S1130140CE010E9453007C0143E050E066E070E081
S1130150CE010E945300B7010E94030247E050E021
S11301606EE070E0CE010E945300BC01990F880B31
S1130170990B0E94C6024B015C0120E030E04AE783
S113018055E40E9453036B017C0120E030E040E819
S11301905FE30E949002882324F120E03FEF4FE7C1
S11301A057E4C701B6010E944E031816ACF420E0D0
S11301B030E040E251E4C501B4010E9453030E94BF
S11301C0950206C080E991E00197F1F76150710949
S11301D061157105B9F783C0C701B6010E94950284
S11301E002C061E070E0CB010197F1F778C044E010
S11301F050E066E071E0CE010E940D04892B09F005
S11302004DC08D81863429F484EB90E00E940E0267
S113021066C0823429F484EB90E00E9419025FC026
S1130220823589F484EB90E00E942F0288E893E100
S113023005C0E0E9F1E03197F1F701970097C9F7BC
S11302400E9445024CC08C3489F484EB90E00E94F7
S1130250240288E893E105C0E0E9F1E03197F1F781
S113026001970097C9F70E94450239C0853589F482
S113027084EB90E00E943A0288E893E105C0E0E94B
S1130280F1E03197F1F701970097C9F70E94450211
S113029026C0833521F50E94450221C044E050E088
S11302A06BE071E0CE010E940D04892BC1F40E9421
S11302B000029F938F9380E191E09F938F9384E159
S11302C091E09F938F930E94230484E191E00E9424
S11302D069020F900F900F900F900F900F90DF9185
S11302E0CF91FF90EF90DF90CF90BF90AF909F9011
S11302F08F90089587E690E00E9453020E944A027C
S113030084E191E00E94760284E191E00E948800F9
S1130310F7CFE1EBF0E0808181608083E0EBF0E0F7
S11303208081816080838081806880838081806215
S1130330808308958AB188608AB984B1806184B960
S113034084B1826084B9089584B1886084B984B129
S1130350806284B984B1816084B90895181619063D
S113036014F01092B4009C01215031092E3F310544
S113037010F48093B4008F3F910514F08093B4007F
S1130380089525B12D7F25B90E94AE0185B18F7ED8
S113039085B9089525B12D7F25B90E94AE0185B197
S11303A0806185B908951816190614F01092B300E7
S11303B09C01215031092E3F310510F48093B30084
S11303C08F3F910514F08093B300089525B12E7FDB
S11303D025B90E94D30185B1806285B9089525B1FC
S11303E02E7F25B90E94D30185B18F7D85B90895EB
S11303F085B1826085B9089585B1816085B9089514
S113040082E390E00895CF93DF93EB010E94AE0165
S1130410CE010E94D301DF91CF910895CF93DF9352
S1130420EC010E94C101CE010E94E601DF91CF914F
S11304300895CF93DF93EC010E94CA01CE010E947C
S1130440EF01DF91CF910895CF93DF93EC010E94E8
S1130450F801CE010E94E601DF91CF910895CF9378
S1130460DF93EC010E94FC01CE010E94C101DF91E7
S1130470CF910895CF93DF93EC010E94C101CE0187
S11304800E94EF01DF91CF9108950E94F8010E942C
S1130490FC0108950E9489010E949A010E94A4010E
S11304A00E94450208959093C5008093C40088E19A
S11304B08093C100E2ECF0E086E080838081886074
S11304C0808308959091C00095FFFCCF8093C6006F
S11304D00895CF93DF93EC0103C00E94620221963A
S11304E088818111FACFDF91CF910895AC0190E01A
S11304F020E030E00CC09091C0009923E4F7909183
S1130500C600FA01E20FF31F90832F5F3F4F9D3027
S113051011F09A3081F7FA01E20FF31F1082089567
S11305200E94010308F481E008950E942D0388F0DD
S11305309F5798F0B92F9927B751B0F0E1F0660FA3
S1130540771F881F991F1AF0BA95C9F714C0B130E4
S113055091F00E944703B1E008950C944703672F7C
S1130560782F8827B85F39F0B93FCCF38695779513
S11305706795B395D9F73EF49095809570956195FC
S11305807F4F8F4F9F4F0895E89409C097FB3EF427
S113059090958095709561957F4F8F4F9F4F9923CC
S11305A0A9F0F92F96E9BB279395F695879577954A
S11305B06795B795F111F8CFFAF4BB0F11F460FF0A
S11305C01BC06F5F7F4F8F4F9F4F16C0882311F062
S11305D096E911C0772321F09EE8872F762F05C076
S11305E0662371F096E8862F70E060E02AF09A9511
S11305F0660F771F881FDAF7880F9695879597F906
S11306000895990F0008550FAA0BE0E8FEEF16169F
S11306101706E807F907C0F012161306E407F507F2
S113062098F0621B730B840B950B39F40A2661F066
S1130630232B242B252B21F408950A2609F4A14009
S1130640A6958FEF811D811D089557FD9058440F85
S1130650551F59F05F3F71F04795880F97FB991F1D
S113066061F09F3F79F087950895121613061406DA
S1130670551FF2CF4695F1DF08C016161706180667
S1130680991FF1CF86957105610508940895E89442
S1130690BB2766277727CB0197F908950E940103AA
S11306A008F48FEF08950E9466030C94D7030E9408
S11306B0C90338F00E94D00320F0952311F00C9464
S11306C0C0030C94C60311240C9448030E94250310
S11306D070F3959FC1F3950F50E0551F629FF00191
S11306E0729FBB27F00DB11D639FAA27F00DB11DAA
S11306F0AA1F649F6627B00DA11D661F829F222733
S1130700B00DA11D621F739FB00DA11D621F839FB9
S1130710A00D611D221F749F3327A00D611D231F8F
S1130720849F600D211D822F762F6A2F11249F57DD
S113073050409AF0F1F088234AF0EE0FFF1FBB1FE0
S1130740661F771F881F91505040A9F79E3F51059F
S113075080F00C94C0030C9448035F3FE4F3983E8C
S1130760D4F3869577956795B795F795E7959F5F49
S1130770C1F7FE2B880F911D9695879597F90895DB
S113078097F99F6780E870E060E008959FEF80EC40
S1130790089500240A9416161706180609060895E3
S11307A000240A9412161306140605060895092E49
S11307B00394000C11F4882352F0BB0F40F4BF2BB8
S11307C011F460FF04C06F5F7F4F8F4F9F4F0895F8
S11307D0FC0188279927E89421912032E9F32930F4
S11307E010F02E30C8F32B3241F02D3239F46894D6
S11307F004C00E941B04820F911D219120532A30B2
S1130800C0F31EF4909581959F4F0895FB01DC0180
S113081001900D920020E1F70895FB01DC014150A5
S1130820504030F08D910190801919F40020B9F7EF
S1130830881B990B08957AE0979F902D879F802DB0
S1130840910D11240895AEE0B0E0E9E2F4E00C94D7
S1130850E4060D891E8986E08C831A8309838FEF51
S11308609FE79E838D83AE01475E5F4F6F89788DCE
S1130870CE0101960E944504EF81F885E00FF11F37
S113088010822E96E4E00C940007ABE0B0E0EBE4B9
S1130890F4E00C94D6066C017B018A01FC011782FA
S11308A01682838181FFCCC1CE0101963C01F60101
S11308B09381F70193FD859193FF81917F018823B3
S11308C009F4BAC1853239F493FD859193FF81917E
S11308D07F01853229F4B60190E00E943C06E7CFFF
S11308E0912C212C312CFFE1F315D8F08B3279F0C7
S11308F038F4803279F08332A1F4232D20611DC0B5
S11309008D3261F0803369F4232D216016C0832D6C
S11309108260382EE32DE4603E2E2AC0F32DF86069
S11309201DC037FC2DC020ED280F2A3040F08E3238
S1130930B9F436FC81C1232D2064322E19C036FE51
S113094006C08AE0989E200D1124922E11C0EAE080
S11309502E9E200D1124222EF32DF0623F2E08C06E
S11309608C3621F4832D8068382E02C0883641F4F9
S1130970F70193FD859193FF81917F018111B3CF9D
S1130980982F9F7D9554933028F40C5F1F4F9FE35D
S113099099830DC0833631F0833771F0833509F0C4
S11309A059C021C0F801808189830E5F1F4F8824BC
S11309B08394912C530113C02801F2E04F0E511C73
S11309C0F801A080B18036FE03C0692D70E002C03A
S11309D06FEF7FEFC5010E9431064C018201F32DB8
S11309E0FF773F2E16C0280122E0420E511CF80169
S11309F0A080B18036FE03C0692D70E002C06FEFA5
S1130A007FEFC5010E9426064C01F32DF0683F2EAE
S1130A10820133FC1BC0822D90E088169906B0F445
S1130A20B60180E290E00E943C062A94F4CFF501DE
S1130A3037FC859137FE81915F01B60190E00E94F9
S1130A403C0621102A9421E0821A91088114910411
S1130A5071F7E8C0843611F0893641F5F80137FEA4
S1130A6007C060817181828193810C5F1F4F08C030
S1130A7060817181072E000C880B990B0E5F1F4F4C
S1130A80F32DFF763F2E97FF09C0909580957095C2
S1130A9061957F4F8F4F9F4FF0683F2E2AE030E0E3
S1130AA0A3010E947806882E861845C0853731F444
S1130AB0232D2F7EB22E2AE030E025C0932D997F7E
S1130AC0B92E8F36C1F018F4883579F0B5C0803767
S1130AD019F0883721F0B0C0E92FE061BE2EB4FED2
S1130AE00DC0FB2DF460BF2E09C034FE0AC0292FAF
S1130AF02660B22E06C028E030E005C020E130E0D8
S1130B0002C020E132E0F801B7FE07C060817181C4
S1130B10828193810C5F1F4F06C06081718180E0E8
S1130B2090E00E5F1F4FA3010E947806882E86185E
S1130B30FB2DFF773F2E36FE0DC0232D2E7FA22ED8
S1130B40891458F434FE0BC032FC09C0832D8E7E08
S1130B50A82E05C0B82CA32C03C0B82C01C0B92CF6
S1130B60A4FE0FC0FE01E80DF11D8081803321F445
S1130B709A2D997EA92E09C0A2FE06C0B394B394FF
S1130B8004C08A2D867809F0B394A3FC11C0A0FE9A
S1130B9006C0B21488F4280C922C9B180EC0B21410
S1130BA060F4B60180E290E00E943C06B394F7CF73
S1130BB0B21418F42B1802C0982C212CA4FE10C0D7
S1130BC0B60180E390E00E943C06A2FE17C0A1FC9F
S1130BD003C088E790E002C088E590E0B6010CC04D
S1130BE08A2D867859F0A1FE02C08BE201C080E212
S1130BF0A7FC8DE2B60190E00E943C06891438F40B
S1130C00B60180E390E00E943C069A94F7CF8A9460
S1130C10F301E80DF11D8081B60190E00E943C06CD
S1130C208110F5CF222009F442CEB60180E290E093
S1130C300E943C062A94F6CFF6018681978102C071
S1130C408FEF9FEF2B96E2E10C94F206FC010590E6
S1130C50615070400110D8F7809590958E0F9F1FBA
S1130C600895FC016150704001900110D8F78095FF
S1130C7090958E0F9F1F08950F931F93CF93DF932B
S1130C80FB01238121FD03C08FEF9FEF2CC022FFC6
S1130C9016C046815781248135814217530744F495
S1130CA0A081B1819D012F5F3F4F318320838C93BD
S1130CB0268137812F5F3F4F3783268314C08B01F2
S1130CC0EC01FB010084F185E02D0995892BE1F607
S1130CD0D80116968D919C911797019617969C931F
S1130CE08E931697CE01DF91CF911F910F910895A6
S1130CF0FA01AA27283051F1203181F1E8946F9349
S1130D006E7F6E5F7F4F8F4F9F4FAF4FB1E03ED0EE
S1130D10B4E03CD0670F781F891F9A1FA11D680F8C
S1130D20791F8A1F911DA11D6A0F711D811D911DBF
S1130D30A11D20D009F468943F912AE0269F112434
S1130D403019305D3193DEF6CF010895462F477098
S1130D50405D4193B3E00FD0C9F7F6CF462F4F70F3
S1130D60405D4A3318F0495D31FD4052419302D051
S1130D70A9F7EACFB4E0A6959795879577956795F7
S1130D80BA95C9F700976105710508959B01AC01F7
S1130D900A2E06945795479537952795BA95C9F71E
S1130DA0620F731F841F951FA01D08952F923F92F9
S1130DB04F925F926F927F928F929F92AF92BF9267
S1130DC0CF92DF92EF92FF920F931F93CF93DF9313
S1130DD0CDB7DEB7CA1BDB0B0FB6F894DEBF0FBE70
S1130DE0CDBF09942A88398848885F846E847D84BD
S1130DF08C849B84AA84B984C884DF80EE80FD80BF
S1130E000C811B81AA81B981CE0FD11D0FB6F89434
S1110E10DEBF0FBECDBFED010895F894FFCFF5
S1130E1E5350454544004D4F5645004449535400E4
S1070E2E25640A0029
S9030000FC
